:020000040800F2
:1000000000800120B1050008411300084F130008CB
:10001000551300085B13000861130008000000007E
:10002000000000000000000000000000671300084E
:1000300075130008000000008313000891130008E6
:100040000106000801060008010600080106000874
:100050000106000801060008010600089D130008BB
:100060000106000801060008010600080106000854
:100070000106000801060008010600080106000844
:100080000106000801060008010600080106000834
:100090000106000801060008010600080106000824
:1000A0000106000801060008010600080106000814
:1000B0000106000801060008010600080106000804
:1000C00001060008010600080106000801060008F4
:1000D00001060008010600080106000801060008E4
:1000E000AB1300080106000801060008010600081D
:1000F00001060008010600080106000800000000D3
:100100000106000801060008010600080D1300089A
:1001100001060008010600080106000801060008A3
:100120000106000801060008010600080106000893
:100130000106000801060008010600080106000883
:100140000106000801060008010600080106000873
:100150000106000801060008010600080106000863
:100160000106000801060008010600080106000853
:100170000106000801060008000000000106000852
:100180000106000801060008010600080106000833
:100190000106000801060008000000000000000041
:1001A0000000000000000000010600080106000831
:0C01B00001060008010600080106000816
:1001C00010B5054C237833B9044B13B10448AFF391
:1001D00000800123237010BDB80000200000000043
:1001E000BC9C000808B5034B1BB103490348AFF39F
:1001F000008008BD00000000BC000020BC9C00087E
:10020000034613F8012B002AFBD1181A0138704756
:1002100001F0FF01102A2BDB10F0070F08D010F8B7
:10022000013B013A8B422DD010F0070F42B3F6D1BB
:10023000F0B441EA012141EA014122F007047FF0D4
:1002400000070023F0E80256083C85EA010586EA2B
:10025000010685FA47F5A3FA87F586FA47F6A5FA67
:1002600087F68EB9EED1F0BC01F0FF0102F0070273
:1002700032B110F8013B013A83EA010313B1F8D11E
:100280000020704701387047002D06BF35460338FF
:10029000073815F0010F07D1013015F4807F02BF38
:1002A000013015F4C03F0130F0BC0138704700BF89
:1002B00053B94AB9002908BF00281CBF4FF0FF31CD
:1002C0004FF0FF3000F072B9ADF1080C6DE904CECB
:1002D00000F006F8DDF804E0DDE9022304B0704721
:1002E0002DE9F047089E04468846002B4BD18A42F0
:1002F000154667D9B2FA82F24AB1C2F1200701FA73
:1003000002F320FA07F7954047EA030894404FEAC2
:10031000154E230CB8FBFEF71FFA85FC0EFB178861
:1003200043EA084307FB0CF1994209D9EB1807F19E
:10033000FF3080F01B81994240F21881023F2B442C
:100340005B1AA4B2B3FBFEF00EFB103344EA034485
:1003500000FB0CFCA44509D92C1900F1FF3380F0F7
:100360000781A44540F2048102382C4440EA07404A
:10037000A4EB0C0400271EB1D4400023C6E90043BF
:100380003946BDE8F0878B4209D9002E00F0EB809A
:100390000027C6E9000138463946BDE8F087B3FAC0
:1003A00083F7002F47D18B4202D3824200F2FA80BA
:1003B000841A61EB030301209846002EE0D0C6E9C1
:1003C0000048DDE702B9FFDEB2FA82F2002A40F00F
:1003D0008F80491B4FEA154E1FFA85F80127B1FBA4
:1003E000FEFC230C0EFB1C1143EA014308FB0CF13D
:1003F000994207D9EB180CF1FF3002D2994200F272
:10040000CD808446591AA3B2B1FBFEF00EFB101446
:1004100043EA044408FB00F8A04507D92C1900F171
:10042000FF3302D2A04500F2B6801846A4EB0804C0
:1004300040EA0C409FE7C7F1200CBB4022FA0CFEBB
:100440004EEA030E01FA07F420FA0CF521FA0CF338
:100450004FEA1E482543B3FBF8F92C0C08FB19336F
:100460001FFA8EFA44EA034309FB0AF49C4202FA9B
:1004700007F200FA07F10BD91EEB030309F1FF3075
:1004800080F087809C4240F28480A9F10209734485
:100490001B1BADB2B3FBF8F008FB103345EA034475
:1004A00000FB0AFAA24508D91EEB040400F1FF3351
:1004B0006BD2A24569D90238744440EA0940A0FBD6
:1004C0000289A4EB0A044C45C2464B4654D351D092
:1004D000002E69D0B1EB0A0564EB030404FA0CFCAE
:1004E000FD40FC404CEA0505C6E90054002747E7FB
:1004F000C2F1200320FA03F7954001FA02F021FA35
:1005000003F34FEA154E3843010CB3FBFEF71FFA15
:1005100085F80EFB173341EA034107FB08F38B42D2
:1005200004FA02F407D9691807F1FF3C2FD28B4275
:100530002DD9023F2944CB1A81B2B3FBFEF00EFB4A
:10054000103341EA034100FB08F38B4207D96918D5
:1005500000F1FF3C17D28B4215D902382944C91A41
:1005600040EA07473BE73746304609E70746E7E6F4
:100570001846FBE64145ABD2B8EB020A69EB0E0226
:1005800001381346A4E76046E9E7184695E7674651
:10059000D1E781467CE702382C4447E7ACF1020CF6
:1005A0002B442FE7384608E73746E9E6704700BF97
:1005B000DFF834D000F08EFF002103E00B4B5B58D6
:1005C000435004310A480B4B42189A42F6D30A4A68
:1005D00002E0002342F8043B084B9A42F9D308F0AA
:1005E00013F800F07FF9FEE70080012018A800084A
:1005F00000000020B8000020B800002020140020D7
:10060000FEE7000080B485B000AF78600023FB6097
:100610001B4B1B689BB24FF6FF72934208D0184BDE
:100620001B689B025A08174B134003F1006301E05B
:100630004FF001637A68934205D97B6803F17843F0
:100640001B0BFB6015E00E4B1B689BB24FF6FF7255
:10065000934208D00A4B1B689B025A08094B13406F
:1006600003F1006301E04FF001637A68D31A1B0BBA
:10067000FB60FB6818461437BD465DF8047B704785
:10068000E075FF1F00FEFF0180B485B000AF786009
:100690000023FB60204B1B6803F48073002B1AD1EE
:1006A0001E4B1B689BB24FF6FF72934208D01B4B48
:1006B0001B689B025A081A4B134003F1006301E0C8
:1006C0004FF001637A68934202D90123FB601CE07A
:1006D0000223FB6019E0114B1B689BB24FF6FF72BF
:1006E000934208D00D4B1B689B025A080C4B1340D9
:1006F00003F1006301E04FF001637A68934202D98D
:100700000223FB6001E00123FB60FB6818461437FD
:10071000BD465DF8047B704700000140E075FF1F97
:1007200000FEFF0180B582B000AF01237B6003F0C3
:1007300015FA0346002B19D1104B9B690F4A43F061
:10074000704393610D4B4CF2FA321A610B4B48F235
:1007500091021A6103F024FA0346002B02D1002310
:100760007B6006E0064808F0CDF802E0054808F096
:10077000C9F87B6818460837BD4680BD0020024096
:10078000D49C0008F49C000880B58CB000AF786061
:1007900039600023FB610123FB620023BB6200235D
:1007A0007B6200233B62FFF7BDFFF862FB6A002B10
:1007B00039D103F0D3F90346002B30D17868FFF725
:1007C00021FFB8627A683B681344013B1846FFF783
:1007D00019FF0246BB6AD31A01337B627868FFF7C0
:1007E00053FF38620023FB603B6A3B61BB6A7B615D
:1007F0007B6ABB6107F11C0207F10C031146184626
:1008000003F09AFA0346002B06D003F0D9F90A4800
:1008100008F078F80123FB6203F0C2F906E007480C
:1008200008F070F802E0064808F06CF8FB6A184619
:100830003037BD4680BD00BF189D00082C9D0008C4
:10084000409D000890B587B000AFF860B9607A604D
:1008500001237B6100233B61FFF764FF78617B69C3
:10086000002B39D103F07AF90346002B01D0012384
:1008700033E000233B6128E03B69DB00BA681344A6
:10088000D3E900341A462346F968002003F0FAF849
:100890000346002B13D1FB68D3E900123B69DB0050
:1008A000B8680344D3E90034A24208BF994202D099
:1008B00001237B610EE0FB680833FB6002E001234B
:1008C0007B6107E03B6901333B617B68DB083A6988
:1008D0009A42D1D303F064F97B6918461C37BD46B0
:1008E00090BD000080B500AF02F0BEFE00F064FCD9
:1008F000002002F021FC0121002002F079FC164BBF
:10090000164A1A60144B4FF4E1325A60124B00221F
:100910009A60114B0022DA600F4B00221A610E4BD5
:100920000C225A610C4B00229A610B4B0022DA61B7
:10093000094B00221A62084B00229A6206490020E5
:1009400002F0ACFC02F066FE054807F0DBFF00F0A9
:1009500033F90023184680BD4013002000380140C1
:100960004C9D0008B0B586B004AF02F0CDF9034647
:10097000002B23D1144807F0C5FF3B46184602F070
:1009800011FA0346002B13D13B7818467B781C469E
:10099000BB781D46FB783A797979029101920093F0
:1009A0002B4622460146094807F024FF002307E0B2
:1009B000074807F0A7FF4FF0FF3301E04FF0FF3388
:1009C00018460837BD46B0BD7C9D0008949D0008C0
:1009D000C49D00080000000090B585B002AFFFF78D
:1009E000C1FFD8220021644807F054FE634B1B6806
:1009F000D8221946604807F042FE5F4BD3E9003425
:100A00005BA2D2E90012944208BF8B4218D15A4B24
:100A100093F8D0301A465A495A4807F0EBFE5A4824
:100A200007F070FF00F002FC41F2883000F00AFC91
:100A30000346002B04D0D82200214F4807F02AFE9D
:100A40004D4BD3E900344AA2D2E90012944208BFC8
:100A50008B4241D04D4807F0CDFE494807F0CCFD10
:100A600047494B4807F0C6FE4A4807F0C3FE07F067
:100A70006FFD0346BB71BB792F2BF5D9BB79332BA7
:100A8000F2D8BB79303BDAB23B4B83F8D0203A4BFB
:100A900093F8D0301946404807F0ACFE364B93F837
:100AA000D030002B05D03D4807F0A4FE3C4807F0AD
:100AB000A3FD314A2EA4D4E90034C2E900342F4BFF
:100AC0001B68D8211846FFF75FFE2C4B1B68D82205
:100AD00029491846FFF7B6FE2949324807F08AFE31
:100AE000254B93F8D030012B06D0022B07D0002BDA
:100AF00008D10023FB7108E00123FB7105E002230C
:100B0000FB7102E00323FB7100BFFB791A46244905
:100B10001B4802F025F90346002B1DD1224802F0A4
:100B200057F90346002B11D11F4B1B7819461E4B5A
:100B30005B781A461C4B9B7818461B4BDB7800935E
:100B400003461A4807F056FE00230AE0184807F04B
:100B5000D9FE4FF0FF3304E0164807F0D3FE4FF004
:100B6000FF3318460C37BD4690BD00BFAFF3008081
:100B7000EFCDAB8967452301D8000020000000209D
:100B8000E0000020E89D0008149E0008709E000808
:100B9000849E0008A49E0008E49E0008109F0008A0
:100BA00044010020289F0008B00500203C9F000859
:100BB000749F0008A49F000890B587B002AF00237F
:100BC000FB733F4807F09EFEFFF706FF0346002B2E
:100BD00002D04FF0FF336EE050230093394B0122D7
:100BE0000021002002F010F90346002B02D0364805
:100BF00007F088FE354B1B781946344B5B781A4654
:100C0000324B9B781846314BDB78009303463048D3
:100C100007F0F0FD2D4B1B7819462C4B5B781A46DC
:100C20002A4B9B781846294BDB78009303462948CA
:100C300007F0E0FD02E02E2007F0F4FDBB1D07F1F8
:100C400008024FF47A71002002F00EF90346002BDF
:100C5000F1D13B7A19467B7A1846BB7A1C46FB7A5F
:100C6000FA8801920093234602461B4807F0C2FD12
:100C700000F03AF80346FB73002002F037F9034610
:100C8000002B05D0154807F03DFE4FF0FF3312E072
:100C9000FB7B83F00103DBB2002BBBD1002002F011
:100CA0003BF90346002B02D00D4807F02BFE0D4800
:100CB00007F028FE002318461437BD4690BD00BF3C
:100CC000CC9F0008E89F0008EC9F0008B0050020BA
:100CD00008A0000858A0000884A00008A8A00008E8
:100CE000DCA00008F8A0000880B586B002AF0023A1
:100CF000FB7307F10C0242F21073009313464FF49A
:100D00007A725549002002F041F90346002B40F069
:100D10009A80BB891946514807F06CFDBB89002BAE
:100D200000F094804E494C4807F086FE0346002BA5
:100D30001CD002F08BFCF0EE407AFDEEE77AC7EDB6
:100D4000017A3B79BB73474B1B68DBB2BA7B114618
:100D5000184600F0A1F80346002B03D0424807F0E4
:100D6000D1FD73E0414807F0CDFD6FE040493A48BE
:100D700007F062FE0346002B68D03E4807F0C2FD34
:100D80003D49354807F058FE0346002B24D03B4927
:100D9000314807F051FE0346002B06D0314B0022AC
:100DA0001A60002002F00EFA0CE035492A4807F0DC
:100DB00043FE0346002B05D02A4B01221A60002077
:100DC00002F0EAF902F042FCF0EE407AFDEEE77A3A
:100DD000C7ED017A3B79BB732A491F4807F02CFE07
:100DE0000346002B12D028491B4807F025FE034676
:100DF000002B02D00023FB7308E02449164807F0BB
:100E00001BFE0346002B01D00123FB7302F01EFCE6
:100E1000F0EE407AFDEEE77AC7ED017A3B79BB73DD
:100E2000104B1B68DBB2BA7B1146184600F034F851
:100E30000346002B03D00C4807F064FD06E014487D
:100E400007F060FD02E0134807F05CFDFB7B1846ED
:100E50001037BD4680BD00BFB805002008A10008BE
:100E600024A10008B405002028A1000848A100081A
:100E700068A1000870A1000880A1000888A10008EE
:100E800090A1000898A10008A4A10008B4A100083E
:100E9000C4A10008E4A10008F0B593B002AF034676
:100EA0000A46FB711346BB71B44AB54B14461D4646
:100EB0000FCD0FC40FCD0FC40FCD0FC495E80F0099
:100EC00007C4238002341B0C2370AC48FFF798F949
:100ED00003461A46A94B1344AA4A1D4614460FCC92
:100EE00028606960AA60EB6023782B74A348FFF741
:100EF00087F903461A46A14B1344A34A14469C465D
:100F000004F1200E654626460FCE28606960AA606F
:100F1000EB6010340CF1100C7445F3D1624623469B
:100F20001B8813809548FFF76BF903461A46934BCD
:100F30001344964A184611464E231A4607F09FFB63
:100F40008E48FFF75DF903461A468C4B1344904ACE
:100F50001C46134607CB20606160A2601B78237398
:100F60008648FFF74DF903461A46844B1344894AD5
:100F700014469C4604F1400E654626460FCE286076
:100F80006960AA60EB6010340CF1100C7445F3D169
:100F9000BA7907F10C038049184607F0F7FC07F10E
:100FA0000C031946754807F011FD7448FFF728F93E
:100FB00003461A46714B1344784A1D4614460FCC1B
:100FC00028606960AA60EB6023782B74FB79002BA2
:100FD00040D06A48FFF714F903461A46674B13449A
:100FE0006F4A14469C4604F1300E654626460FCEE5
:100FF00028606960AA60EB6010340CF1100C744535
:10100000F3D16346224610681860918892799980DE
:101010009A715A48FFF7F4F803461A46574B13449F
:10102000604A14469C4604F1300E654626460FCEB3
:1010300028606960AA60EB6010340CF1100C7445F4
:10104000F3D16546234607CB28606960AA601B88F8
:10105000AB813FE04948FFF7D3F803461A46474BB8
:101060001344514A14469C4604F1300E6546264608
:101070000FCE28606960AA60EB6010340CF1100C90
:101080007445F3D16546234607CB28606960AA60A2
:101090001B88AB813948FFF7B3F803461A46374B34
:1010A0001344424A14469C4604F1300E65462646D7
:1010B0000FCE28606960AA60EB6010340CF1100C50
:1010C0007445F3D16346224610681860918892797E
:1010D00099809A712948FFF793F803461A46274BDF
:1010E0001344334A14469C4604F1300E65462646A6
:1010F0000FCE28606960AA60EB6010340CF1100C10
:101100007445F3D11D48FFF77BF803461A461B4B85
:101110001344284A1D4614460FCC28606960AA6013
:10112000EB602388A2782B821346AB741348FFF739
:1011300067F803469AB207F10A0142F2107300936E
:101140000B460E49002001F0FFFE034687F83F30B2
:1011500097F83F30002B0AD17B891C460748FFF7E0
:101160004FF803469C4202D0012387F83F3097F89E
:101170003F3018464437BD46F0BD00BFB0010020E7
:10118000FCA100083CA2000850A2000874A20008BC
:10119000C4A20008D4A2000814A3000818A30008E1
:1011A0002CA3000864A30008A4A30008E4A300087B
:1011B0001CA400084CA4000880B596B000AF102312
:1011C0003B600123BB6160233B620023FB61022380
:1011D000BB620123FB6201233B6328237B63022361
:1011E0003B640723BB630423FB633B46184603F0C1
:1011F00067FE0346002B00D0FEE70F237B6403232A
:10120000BB640023FB6400233B6500237B6507F17F
:1012100044030421184604F079FA0346002B00D059
:10122000FEE700BF5837BD4680BD000080B400AF68
:10123000034B00221A7000BFBD465DF8047B704767
:10124000D400002080B584B000AF786002F07CFA52
:1012500002467B681344FB600B4B1B78DBB2002B10
:1012600003D0094B1B78DBB209E0642002F078FA66
:1012700002F06AFA0246FB689342EDD80023184652
:101280001037BD4680BD00BFD400002080B582B0BD
:1012900000AF7860391D4FF6FF730122034806F056
:1012A000ACFB7B6818460837BD4680BD4013002064
:1012B00080B582B000AF0023FB7100BFF91D47F27B
:1012C00030530122054806F02FFC0346002BF5D1D0
:1012D000FB7918460837BD4680BD00BF401300208B
:1012E00080B582B000AF0346FB80FB88022B06D09E
:1012F000B3F5005F00D005E000F012F802E001F065
:10130000F3FC00BF00BF0837BD4680BD80B500AF0D
:10131000024805F0B1FC00BF80BD00BFDC09002021
:1013200080B400AF054B1B78DBB20133DAB2034B5C
:101330001A7000BFBD465DF8047B7047D4000020E2
:1013400080B400AF00BFBD465DF8047B704780B439
:1013500000AFFEE780B400AFFEE780B400AFFEE769
:1013600080B400AFFEE780B400AF00BFBD465DF8BB
:10137000047B704780B400AF00BFBD465DF8047BBE
:10138000704780B400AF00BFBD465DF8047B704776
:1013900080B500AF02F0C4F900BF80BD80B500AFDA
:1013A000022002F0EDFF00BF80BD80B500AF4FF41A
:1013B000005002F0E5FF00BF80BD80B584B000AFF3
:1013C000F860B9607A60FFF773FF0346DAB2BB6872
:1013D0001A70012318461037BD4680BD80B586B00F
:1013E00000AFF860B9607A6000237B6109E0BB68F8
:1013F0005A1CBA601B781846FFF748FF7B69013317
:101400007B617A697B689A42F1DB7B681846183702
:10141000BD4680BD80B483B000AF78604FF0FF332D
:1014200018460C37BD465DF8047B704780B483B026
:1014300000AF786039603B684FF400525A60002377
:1014400018460C37BD465DF8047B704780B483B006
:1014500000AF7860012318460C37BD465DF8047B69
:10146000704780B485B000AFF860B9607A6000233F
:1014700018461437BD465DF8047B704780B584B0CC
:1014800000AF7860114B1B68002B02D10F4B104A44
:101490001A600E4B1B68FB600C4B1A687B68134488
:1014A0006A46934207D907F04DF802460C231360B1
:1014B0004FF0FF3306E0054B1A687B681344034A7C
:1014C0001360FB6818461037BD4680BDB809002080
:1014D0002014002080B400AF174BD3F88830164A90
:1014E00043F47003C2F88830144B1B68134A43F06E
:1014F00001031360114B00229A60104B1B680F4AC6
:1015000023F0A85323F4102313600C4B4FF48052A4
:10151000DA600A4B1B68094A23F480231360074BE7
:1015200000229A61044B4FF000629A6000BFBD46F2
:101530005DF8047B704700BF00ED00E00010024042
:1015400080B483B000AF0346FB71FB792F2B06D923
:10155000FB79392B03D8FB79303BDBB214E0FB7904
:10156000602B06D9FB79662B03D8FB79573BDBB29E
:101570000AE0FB79402B06D9FB79462B03D8FB798F
:10158000373BDBB200E0002318460C37BD465DF860
:10159000047B704780B584B000AF78603960002369
:1015A000FB600023FB7212E0FB681B01FB607B68A1
:1015B0001B781846FFF7C4FF03461A46FB6813441E
:1015C000FB607B6801337B60FB7A0133FB727B68D5
:1015D0001B782F2B03D97B681B78392BE4D97B68C8
:1015E0001B78602B03D97B681B78662BDCD97B6862
:1015F0001B78402B03D97B681B78462BD4D93B68DA
:10160000002B02D03B68FA7A1A70FB681846103734
:10161000BD4680BD80B485B000AF786039600023DE
:10162000FB730023BB730023BB607B681B782D2BEF
:1016300019D10123FB737B6801337B60BB7B0133D2
:10164000BB7310E0BA6813469B0013445B001A4654
:101650007B681B78303B1344BB607B6801337B6045
:10166000BB7B0133BB737B681B782F2B03D97B6853
:101670001B78392BE6D93B68002B02D03B68BA7B3C
:101680001A70FB7B002B02D0BB685B4200E0BB689A
:1016900018461437BD465DF8047B704780B584B0AA
:1016A00000AF786039600023FB7319E00123BB733E
:1016B0007B681B783A2B0ED007F10E031946786829
:1016C000FFF768FF0146FB7B5A1CFA731A463B681A
:1016D0001344CAB21A70BB7B1A467B6813447B6002
:1016E0007B681B78002BE1D100BF1037BD4680BD61
:1016F00080B584B000AF786039600023FB7319E0D7
:101700000123BB737B681B782E2B0ED007F10E03D1
:1017100019467868FFF77EFF0146FB7B5A1CFA7377
:101720001A463B681344CAB21A70BB7B1A467B68E0
:1017300013447B607B681B78002BE1D100BF10371E
:10174000BD4680BD80B584B000AF786039600023AD
:10175000FB723B6802333449184607F087F9F8609A
:101760005AE0FB7A5A1CFA72062B4FD801A252F8A3
:1017700023F000BF911700089F170008AF1700085B
:10178000BF170008CF170008DF170008F31700087D
:101790007B682022F968184607F039F937E07B6842
:1017A00020331822F968184607F031F92FE07B68DA
:1017B00038331022F968184607F029F927E07B68CA
:1017C00048331022F968184607F021F91FE07B68BA
:1017D00058331022F968184607F019F917E000216C
:1017E000F868FFF717FF03461A467B68C3F888209E
:1017F0000DE00E49F86807F039F9F8607B68683346
:101800002022F968184607F002F900E000BF0649F7
:10181000002007F02BF9F860FB68002BA1D100BF76
:101820001037BD4680BD00BF90A4000894A40008F6
:1018300080B584B000AF786039600023FB737B68AB
:1018400002335249184607F011F9B86095E0FB7B66
:101850005A1CFA730B2B7FD801A252F823F000BF59
:10186000911800089F180008AF180008C318000856
:10187000D7180008EB180008F91800080719000825
:101880001519000823190008311900084519000826
:101890003B682122B968184607F0B9F85DE03B685B
:1018A00021332122B968184607F0B1F855E000212C
:1018B000B868FFF7AFFE0346DAB23B6883F8422010
:1018C0004BE00021B868FFF7A5FE0346DAB23B689B
:1018D00083F8432041E00021B868FFF79BFE0346F0
:1018E000DAB23B6883F8472037E03B684833194653
:1018F000B868FFF7FDFE30E03B684C331946B86826
:10190000FFF7F6FE29E03B6850331946B868FFF749
:10191000EFFE22E03B6854331946B868FFF7E8FE53
:101920001BE03B6858331946B868FFF7E1FE14E046
:101930000021B868FFF76EFE0346DAB23B6883F811
:1019400044200AE00021B868FFF764FE0346DAB2DB
:101950003B6883F8462000E000BF0C49002007F0F8
:1019600085F8B860BB68002B07D0BB68013B1B78CB
:101970002C2B02D1FB7B0133FB73BB68002B7FF464
:1019800066AF00BF1037BD4680BD00BF90A4000801
:1019900080B483B000AF786039607B6802331B7815
:1019A000312B0CBF01230023DBB21A463B681A70AF
:1019B00000BF0C37BD465DF8047B704790B587B01B
:1019C00000AFF860B9607A6000233B610023FB82BE
:1019D000FB68D3F82041B868FEF712FC034699B2C1
:1019E000FB68D3F8F8381A46B868A04703463B614D
:1019F0003B69002B3EDDFB68D3F82431FA68D2F84E
:101A0000F8284FF4FA61786898470346FB82B7F9E3
:101A10001630002B27DDB7F91630B3F5FA6F22DC4C
:101A2000B7F91630B3F5FA6F05D1B7F916309BB296
:101A3000013B9BB2FB82B7F916307A68134400224F
:101A40001A700F49786806F0F7FF0346002B01D0A3
:101A5000002310E00B49786806F0EEFF0346002BE8
:101A600001D0052307E0B7F9163013F1040F01D1B7
:101A7000062300E0042318461C37BD4690BD00BF76
:101A8000A4A40008B0A4000880B586B000AFF86038
:101A9000B9607A607B800023FB820023BB82002335
:101AA0007B82B868FEF7ACFB03467B827B8A03F03F
:101AB0000103002B01D0022353E0FB68D3F820314F
:101AC000FA68D2F8F828798AB868984703463B82C2
:101AD0003A8A7B8A9A4243D1FB68D3F82031FA686C
:101AE000D2F8F8287988786898470346FB82B7F9D6
:101AF00016207B889A4231D1FB68D3F82431FA68EA
:101B0000D2F8F8280021386A98470346BB82B7F913
:101B10001430002B19DDB7F914303A6A134400224F
:101B20001A701249386A06F087FF0346002B01D06D
:101B3000002316E00E49386A06F07EFF0346002BAC
:101B400001D005230DE002230BE0B7F9143013F1A7
:101B5000040F01D1062304E0022302E0022300E087
:101B6000042318461837BD4680BD00BFA4A4000852
:101B7000B0A4000890B587B000AFF860B9607A6093
:101B80007B80FB6803F594733B61FB68D3F82041CD
:101B9000B868FEF735FB034699B2FB68D3F8F8380E
:101BA0001A46B868A0470346002B6FDDFB68D3F8E0
:101BB0002431FA68D2F8F82800213869984703469A
:101BC0007B617B6913F1040F01D106235FE03B6960
:101BD0001B780D2B04D13B6901331B780A2B01D0F4
:101BE000042354E07B69023B7B613B6902333B6128
:101BF0007B69072B4AD902E07B69013B7B617B69EA
:101C0000002B06D07B69013B3A6913441B78152BE6
:101C1000F2D07B693A69134400221A707B69083B51
:101C20003A6913441C49184606F006FF0346002B88
:101C300016D07B699BB2083B9AB2BB6A1A80BB6A1A
:101C40001B887A889A4202D2BB6A7A881A80BB6A59
:101C50001B881A463969786806F011FD002316E0E2
:101C60007B69043B3A69134404220C49184606F088
:101C7000F7FC0346002B04D1BB6A00221A8005231F
:101C800005E0BB6A00221A80052300E00423184601
:101C90001C37BD4690BD00BFA4A40008B8A400082E
:101CA00080B584B000AF78600223FB737B6847F295
:101CB0003052C3F8F8287B68D3F8143100209847D5
:101CC0000346002B13D17B6803F594731A460A4927
:101CD0007868FFF773FE0346FB73FB7B002B06D18E
:101CE0007B6803F5947319467868FFF72BFDFB7B3F
:101CF00018461037BD4680BDC0A4000880B485B02A
:101D000000AFF860B9607A603B60FB68002B0BD0D5
:101D1000BB68002B08D07B68002B05D0BB69002B6B
:101D200002D0FB69002B01D1022314E0FB68BA68E2
:101D3000C3F81421FB687A68C3F81821FB68BA69F4
:101D4000C3F82021FB68FA69C3F82421FB683A68CC
:101D5000C3F81C21002318461437BD465DF8047BE8
:101D60007047000080B586B000AFF860B9607A6057
:101D7000FB70BB68002B02D07B68002B02D10223D2
:101D8000FB7561E0FB6803F59473BA683149184646
:101D900006F0FCFDFB6803F59471FB6803F5947392
:101DA0001A46F868FFF70AFE0346FB75FB7D002B19
:101DB0004AD1FB6803F594737A682749184606F000
:101DC000E5FDFB6803F59471FB6803F594731A460F
:101DD000F868FFF7F3FD0346FB75FB7D002B33D15D
:101DE000FB68FA7883F88C20FB6803F59473FA7823
:101DF0001A49184606F0CAFDFB6803F59471FB68A2
:101E000003F594731A46F868FFF7D8FD0346FB758F
:101E1000FB7D002B18D1FB6803F59473104A106802
:101E20001860FB6803F59471FB6803F594731A4618
:101E3000F868FFF7C3FD0346FB75FB7D002B03D15C
:101E4000FB68012283F8D220FB7D18461837BD4677
:101E500080BD00BFD8A40008E0A40008E8A40008E2
:101E6000F0A4000880B584B000AF78607B6803F50B
:101E70009473114A106818607B6803F594717B684D
:101E800003F594731A467868FFF798FD0346FB73D1
:101E9000FB7B002B08D17B6803F594727B68D233FF
:101EA00019461046FFF774FD7B6893F8D230184648
:101EB0001037BD4680BD00BFF4A4000880B584B0D3
:101EC00000AF78607B6803F59473104A106818605F
:101ED0007B6803F594717B6803F594731A46786800
:101EE000FFF76CFD0346FB73FB7B002B08D17B687F
:101EF00003F594727B688D3319461046FFF798FC02
:101F0000FB7B18461037BD4680BD00BFFCA400080F
:101F100080B584B000AF786039607B6803F5947356
:101F2000114A106818607B6803F594717B6803F5AB
:101F300094731A467868FFF741FD0346FB73FB7BF9
:101F4000002B0CD17B6803F59473023307491846C4
:101F500006F08CFDB8603968B868FFF79FFBFB7B23
:101F600018461037BD4680BD58A500085CA500087E
:101F700080B584B000AF786039600023FB737B6864
:101F800003F594703B689B781A464D4906F0FEFCB9
:101F90007B6803F594717B6803F594731A4678683F
:101FA000FFF70CFD0346FB73FB7B002B01D0FB7B93
:101FB00082E03B681B78012B1CD03B681B78022B0E
:101FC00018D07B6803F594733E491A460B4603CB41
:101FD0001060516019889B78118193727B6803F5BA
:101FE00094717B6803F594731A467868FFF7E6FCF2
:101FF0000346FB73FB7B002B5DD17B6803F594707C
:102000003B681B781A46304906F0C0FC7B6803F534
:1020100094717B6803F594731A467868FFF7CEFCD9
:102020000346FB73FB7B002B45D17B6803F5947063
:102030003B681B7C1A46254906F0A8FC7B6803F523
:1020400094717B6803F594731A467868FFF7B6FCC1
:102050000346FB73FB7B002B2DD17B6803F594704B
:102060003B68DB881A461A4906F090FC7B6803F54A
:1020700094717B6803F594731A467868FFF79EFCA9
:102080000346FB73FB7B002B15D17B6803F5947330
:10209000104A106818609188927999809A717B68CB
:1020A00003F594717B6803F594731A467868FFF71B
:1020B00085FC0346FB73FB7B18461037BD4680BD8D
:1020C000C0A5000810A60008C8A500081CA60008A6
:1020D000D0A5000824A6000880B58AB000AFF8603B
:1020E000B9607A600023FB77002387F8273001F07E
:1020F0002BFB38623A6ABB681344BB61BA693B6A1E
:102100009A4201D200233B62FB6803F594734FF4BB
:10211000FA620021184606F0BDFAFB6803F59473D5
:10212000604A10681860FB6803F59471FB6803F55A
:1021300094731A46F868FFF741FC0346FB77FB7F70
:10214000002B2DD1FB6803F594735749184606F010
:1021500073FC0346002B25D0FB6803F594735349A9
:10216000184606F069FC0346002B1BD0FB6803F5FC
:1021700094734F49184606F05FFC0346002B03D0CA
:10218000012387F827300DE0FB6803F59473494974
:10219000184606F051FC0346002B03D102237CE0D5
:1021A00002237AE097F82730002B5FD0FB6803F515
:1021B00094734FF4FA620021184606F06BFAFB683C
:1021C00003F594733C4A10681860FB6803F594713A
:1021D000FB6803F594731A46F868FFF7EFFB0346B4
:1021E000FB77FB7F002B3FD1FB6803F594730C2238
:1021F0003249184606F0F9FB0346002B36D0FB683F
:1022000003F5947302332E49184606F02FFC7861CB
:102210002B49002006F02AFC78617B6808331946B8
:102220007869FFF765FA2649002006F01FFC7861FF
:1022300000217869FFF7EEF903469AB27B68DA80ED
:102240001F49002006F012FC78611D49002006F0AD
:102250000DFC786100217869FFF7DCF903469AB23A
:102260007B689A80002318E0022316E0FB68D3F80D
:102270001C316420984701F067FA3861BB68002B75
:102280003FF442AF3A69BB699A42FFF43DAF3A6905
:102290003B6A9A42FFF438AF032318462837BD46FD
:1022A00080BD00BFD0A400082CA6000834A60008FA
:1022B0003CA6000848A6000858A600085CA600082E
:1022C00090A4000880B584B000AF786039607B6866
:1022D00003F594733A681849184606F057FB7B6873
:1022E00003F594717B6803F594731A467868FFF7D9
:1022F00065FB0346FB73FB7B002B01D0FB7B16E0E9
:102300007B6803F594730D4A106818609188927980
:1023100099809A717B6803F594717B6803F59473D7
:102320001A467868FFF74AFB0346FB73FB7B1846A7
:102330001037BD4680BD00BFC0A500086CA60008D0
:1023400080B584B000AF786039607B6803F5947322
:102350003A681949184606F019FB7B6803F5947131
:102360007B6803F594731A467868FFF727FB0346EA
:10237000FB73FB7B002B01D0FB7B19E07B6803F533
:1023800094730E4A1068186092889A807B6803F5EF
:1023900094717B6803F594731A467868FFF70EFB17
:1023A0000346FB73FB7B002B01D0FB7B00E0FB7B38
:1023B00018461037BD4680BDC0A5000874A60008A9
:1023C00080B588B002AFF8607A601A460B46FB729F
:1023D00013463B810223FB747B6A002B02D101234D
:1023E0007B6101E07B6A7B613B89B3F5966F02D329
:1023F0004FF496633B813B6A3A891A80FB6803F588
:102400009473FA7A2D49184606F0C0FAFB6803F572
:102410009471FB6803F594731A46F868FFF7CEFAD7
:102420000346FB74FB7C002B3CD1FB6803F59473E3
:102430007A692349184606F0A9FAFB6803F59471F6
:10244000FB6803F594731A46F868FFF7B7FA03467A
:10245000FB74FB7C002B25D1FB6803F594733A8950
:102460001849184606F092FAFB6803F59471FB6868
:1024700003F594733A89009313467A68F868FFF776
:1024800003FB0346FB74FB7C002B0BD1FB6803F5BD
:1024900094730D49184606F0CFFA0346002B01D07D
:1024A0000223FB74FB7C022B02D13B6A00221A80C0
:1024B000FB7C18461837BD4680BD00BFC0A500088C
:1024C000A4A60008ACA60008B8A6000880B588B08D
:1024D00002AFF8607A601A460B46FB7213463B81E6
:1024E0000223FB747B6A002B02D101237B6101E094
:1024F0007B6A7B613B89B3F5966F61D8FB6803F516
:102500009473FA7A3149184606F040FAFB6803F5ED
:102510009471FB6803F594731A46F868FFF74EFA56
:102520000346FB74FB7C002B45D1FB6803F59473D9
:102530003A892749184606F029FAFB6803F5947191
:10254000FB6803F594731A46F868FFF737FA0346F9
:10255000FB74FB7C002B2AD1FB6803F594737A692A
:102560001C49184606F012FAFB6803F59471FB68E3
:1025700003F594731A46F868FFF720FA0346FB74D4
:10258000FB7C002B1CD1FB6803F59473124A106886
:102590001860FB6803F594713A893B6A009313460F
:1025A0007A68F868FFF7E6FA0346FB7408E03B6ACE
:1025B00000221A8004E0094B1B680133074A1360AC
:1025C000FB7C18461837BD4680BD00BFC0A500087B
:1025D000C0A60008C8A60008D0A60008BC090020B4
:1025E00080B58CB000AF7860564B9B6D554A43F474
:1025F00000439365534B9B6D03F40043BB61BB6980
:10260000504BDB6C4F4A43F00203D3644D4BDB6C01
:1026100003F002037B617B694A4BDB6C494A43F060
:102620000403D364474BDB6C03F004033B613B6959
:10263000444BDB6C434A43F01003D364414BDB6CE7
:1026400003F01003FB60FB6800224FF400513E488A
:1026500001F07EFE4FF40053FB6101233B62002337
:102660007B620023BB6207F11C031946364801F068
:10267000C5FC0223FB61354B3B6200237B620023D8
:10268000BB6207F11C031946314801F0B7FC4FF457
:102690008073FB6101233B6200237B620023BB62EA
:1026A0000023FB6207F11C031946294801F0A6FC30
:1026B00001220121264801F04BFE0123FB61012389
:1026C0003B6200237B620123BB6207F11C031946B6
:1026D0001F4801F093FC4FF48063FB6102233B62CF
:1026E00000237B620123BB620623FB6207F11C030C
:1026F0001946184801F082FC4FF48053FB61022315
:102700003B6200237B620123BB620623FB6207F16D
:102710001C0319460F4801F071FC4FF40063FB6184
:1027200002233B6201237B620123BB620623FB621F
:1027300007F11C031946074801F060FC00BF303761
:10274000BD4680BD0010024000040048000011108A
:10275000001000480008004880B584B000AF034670
:10276000FB800023FB73FB88002B45D1274B284AB5
:102770001A602648FFF734FF244B4FF482725A60E8
:10278000224B00229A60214B4FF47062DA601F4B9B
:1027900000221A611D4B00225A611C4B4FF400723B
:1027A0009A611A4B1022DA61184B00221A62174BF9
:1027B00000225A62154B00229A62144B0022DA6200
:1027C000124803F053FA0346002B02D04FF0FF33B8
:1027D00018E000220021072001F0BFF8072001F0D7
:1027E000D8F800220021332001F0B7F8332001F09F
:1027F000D0F80A2000F0FEF900F00CF80346FB7355
:1028000097F90F3018461037BD4680BDDC0900200F
:10281000003C004080B584B000AF00F095FFB86088
:102820000023FB7300224FF48071304801F090FDCB
:102830000A2000F095FF01224FF480712B4801F02F
:1028400087FD4FF4FA7000F08BFF0022012127482A
:1028500001F07EFD0F2000F0CDF920E0FB7B3A4631
:10286000D1184FF6FF730122214803F007FB0346FE
:10287000FB71FB7B0233FB7300F066FF0246BB6813
:10288000D31AB3F5803F02D2FB79002B07D0012287
:102890000121164801F05CFD4FF0FF3321E00221D9
:1028A000124801F03DFD0346012BD7D00122012142
:1028B0000E4801F04DFD3B78152B0ED17B78152B82
:1028C0000BD1BB780D2B08D1FB780A2B05D13B79B6
:1028D0003E2B02D17B79202B02D04FF0FF3300E05A
:1028E000002318461037BD4680BD00BF00100048C9
:1028F000DC09002080B500AF024803F083FA002312
:10290000184680BDDC09002080B584B000AF786037
:1029100000F01AFF0346FB600AE000F015FF0246D4
:10292000FB68D21A7B689A4202D94FF0FF3307E066
:102930000221054801F0F4FC0346012BEDD10023F0
:1029400018461037BD4680BD0010004880B584B0E1
:1029500000AF786000F0F8FE0346FB600AE000F08C
:10296000F3FE0246FB68D21A7B689A4202D94FF006
:10297000FF3304E0044B1B68012BF0D00023184602
:102980001037BD4680BD00BFC809002080B584B0A7
:1029900000AF786000F0D8FE0346FB600AE000F06C
:1029A000D3FE0246FB68D21A7B689A4202D94FF0E6
:1029B000FF3304E0044B1B68012BF0D000231846C2
:1029C0001037BD4680BD00BFC009002080B584B06F
:1029D00000AF786000F0B8FE0346FB600AE000F04C
:1029E000B3FE0246FB68D21A7B689A4202D94FF0C6
:1029F000FF3304E0044B1B68012BF0D00023184682
:102A00001037BD4680BD00BFC409002080B586B028
:102A100000AFF8600B467A607B810023FB820122C5
:102A20000121344801F094FC032000F0E3F87B68B6
:102A30001846FFF78BFF0346002B02DA6FF0020304
:102A400054E0002201212B4801F082FC0F2000F00D
:102A5000D1F83DE0B7F916207B899A4202DB7B89E9
:102A6000002B3CD1244B01221A6007F114030122F0
:102A70001946224803F050FF0346002B07D00122DD
:102A800001211C4801F064FC4FF0FF332EE07B680D
:102A90001846FFF77BFF3A7DFB681A70FB6801332D
:102AA0007A7D1A70FB8A02339BB2FB82FB68023389
:102AB000FB60B7F91630B3F5FA6F09DB012201218B
:102AC0000C4801F045FCFFF7A5FE6FF003030DE095
:102AD0000221084801F024FC0346012BBAD0012250
:102AE0000121044801F034FCB7F9163018461837B4
:102AF000BD4680BD00100048C0090020DC09002050
:102B000080B586B000AFF8600B467A607B817B6849
:102B10001846FFF7F9FE0346002B02DA4FF0FF33A9
:102B20004FE02A4B01221A6000220121284801F0BF
:102B30000FFC0F2000F05EF87B89012B19D9254B83
:102B400001221A607B895B089BB21A46F968224809
:102B500003F040FE0346002B07D0012201211C4850
:102B600001F0F6FB4FF0FF332BE07B681846FFF7D0
:102B70002DFF7B8903F00103002B20D07B89013BD3
:102B8000FA6813441B783B750A237B75114B0122AD
:102B90001A6007F11403012219460F4803F01AFEC8
:102BA0000346002B07D001220121094801F0D0FB88
:102BB0004FF0FF3305E07B681846FFF707FFB7F9D2
:102BC0000A3018461837BD4680BD00BFC80900202E
:102BD00000100048C4090020DC09002080B582B044
:102BE00000AF7860786800F0BBFD00BF0837BD46D5
:102BF00080BD000080B586B000AF78600023BB6068
:102C000000237B61204B1B68002B22D11F4B1B68CC
:102C10001F4AA2FB03239B093B610023FB603B6926
:102C2000BB6000F091FDF86002E0BB68013BBB6057
:102C3000BB68002BF9D100F087FD0246FB68D31A70
:102C4000114A1360104B1B68002B02D10E4B01225E
:102C50001A600E4B1B680F4AA2FB03239A0C0A4B07
:102C60001B68B2FBF3F37B617B687A6902FB03F3B9
:102C7000BB6002E0BB68013BBB60BB68002BF9D1C5
:102C800000BF1837BD4680BDCC09002004000020DD
:102C9000D34D621083DE1B4380B483B000AF7860F5
:102CA000064B1B68002B02D0044B00221A6000BFA9
:102CB0000C37BD465DF8047B704700BFC00900209B
:102CC00080B483B000AF7860064B1B68002B02D045
:102CD000044B00221A6000BF0C37BD465DF8047B30
:102CE000704700BFC409002080B400AF054B1B68CB
:102CF000012B02D1034B00221A6000BFBD465DF8D4
:102D0000047B7047C809002080B584B002AF01235E
:102D1000FB710D4B01930D4B00930D4B0D4A0E496A
:102D20000E48FEF7EBFF0346002B07D10B48FEF7DA
:102D3000B7FF0346002B01D10023FB71FB79184636
:102D40000837BD4680BD00BF0D2A0008012B0008D2
:102D5000DD2B0008F528000859270008400A00204C
:102D600080B586B000AFF860B9601346FB710123EF
:102D7000FB75FB79BA68F9680948FEF7F3FF03466B
:102D8000002B07D10648FFF799F80346002B01D125
:102D90000023FB75FB7D18461837BD4680BD00BF7C
:102DA000400A002080B584B000AF78600123FB7337
:102DB00079680648FFF7ACF80346002B01D10023E1
:102DC000FB73FB7B18461037BD4680BD400A0020D0
:102DD00080B584B000AF78600123FB730948FFF72A
:102DE00041F80346012B07D1064BD3F8D5301A46DC
:102DF0007B681A600023FB73FB7B18461037BD46C7
:102E000080BD00BF400A002080B58AB000AFF860E6
:102E10007B600B46FB7213463B81012387F827300A
:102E2000FB68DBB2BB743B8EFB82FB7A002B14BFCA
:102E300001230023DBB23B743B89DBB287F82030EF
:102E400007F1100319460748FFF792F80346002BD5
:102E500002D1002387F8273097F827301846283703
:102E6000BD4680BD400A002080B58AB000AFF86042
:102E7000B9607A603B60FB68DBB2BB7407F110039A
:102E80001A46B9681848FFF727F9034687F827302C
:102E900097F82730002B0DD13B68002B02D0BA8A5F
:102EA0003B681A807B68002B02D0BA697B681A6085
:102EB000002314E097F82730032B0FD13B68002B39
:102EC00002D03B6800221A807B68002B04D00422C9
:102ED0000021786805F0DEFB052300E00123184699
:102EE0002837BD4680BD00BF400A002080B584B0B1
:102EF00000AF78600123FB7379680648FFF7E2F9B9
:102F00000346002B01D10023FB73FB7B18461037CF
:102F1000BD4680BD400A002080B584B000AF786017
:102F20000123FB737B6819460648FFF709FA03463D
:102F3000002B01D10023FB73FB7B18461037BD46E5
:102F400080BD00BF400A002080B588B002AFB960E4
:102F50007B600346FB731346BB810123FB75BA8973
:102F6000F97B3B6A01937B6800931346BA68064875
:102F7000FFF726FA0346002B01D10023FB75FB7DEA
:102F800018461837BD4680BD400A002080B588B07D
:102F900002AFB9607B600346FB731346BB8101231C
:102FA000FB75BA89F97B3B6A01937B6800931346F2
:102FB000BA680648FFF78AFA0346002B01D10023BE
:102FC000FB75FB7D18461837BD4680BD400A0020C2
:102FD00080B584B000AF03463960FB80FB88DBB26C
:102FE0002021184600F0DAFA0346FB73FB7B23F03E
:102FF0000403FB73FB7B43F00403FB73FB7B23F0B5
:103000000303FB73FB7B43F00103FB73FB7B63F068
:103010007F03FB73FB88DBB2FA7B2021184600F0AC
:10302000A3FA00BF1037BD4680BD80B588B000AFA1
:103030000346FB80FB88D8B207F108020223B221C5
:1030400000F0CAFAFB88DBB23521184600F0A6FA78
:103050000346FB77FB7F1B021BB203F440731AB2DB
:103060003B7A1BB21343BB83FB7F9B011BB203F470
:1030700040731AB27B7A1BB213437B83B7F91C30BF
:10308000DB103B83B7F91A30DB10FB82FB88D8B228
:1030900007F108020423BC2100F09EFA7B7A1B0290
:1030A0001AB23B7A1BB21343BB82FB7A1B021AB2E1
:1030B000BB7A1BB213437B82FB88D8B207F10802AC
:1030C0000223AA2100F088FA7B7A1B021AB23B7A0B
:1030D0001BB213433B82B7F91020B7F91430D31A4F
:1030E00007EE903AB8EEE77AB7F91620B7F918303C
:1030F000D31A07EE903AF8EEE77A67EE276AB7F947
:103100001220B7F91430D31A07EE903AF8EEE77AA6
:1031100086EEA77AB7F9183007EE903AF8EEE77A1C
:1031200077EE277AC7ED037AFB6807EE903AB0EEA8
:10313000670A2037BD4680BD80B588B000AF034622
:10314000FB71FB79002B0BD1114BDB6C104A43F068
:103150000203D3640E4BDB6C03F00203BB60BB685D
:103160004FF48043FB6001233B6100237B6102231A
:10317000BB61FB79074A52F8233007F10C02114674
:10318000184600F03BFF00BF2037BD4680BD00BFA2
:10319000001002401800002080B582B000AF034646
:1031A000FB71FB79064A52F823304FF4804291B20A
:1031B0000122184601F0CCF800BF0837BD4680BD9B
:1031C0001800002080B582B000AF0346FB71FB7988
:1031D000064A52F823304FF4804291B2002218463A
:1031E00001F0B6F800BF0837BD4680BD18000020CA
:1031F00080B588B000AF03460A46FB711346BB7129
:10320000234BDB6C224A43F00403D364204BDB6C7A
:1032100003F00403BB60BB68BB79002B12D14FF4F1
:103220000053FB6000233B6101237B610223BB61F0
:10323000FB79184A52F8233007F10C021146184660
:1032400000F0DCFEBB79012B1ED14FF40053FB6074
:1032500001237B610323BB610F4B3B61FB790D4A6B
:1032600052F8233007F10C021146184600F0C6FE52
:1032700028235BB200220F21184600F06EFB2823A2
:103280005BB2184600F085FB00BF2037BD4680BD0D
:10329000001002401C0000200000111080B58AB010
:1032A00000AF03463960FB71FB79002B0BD12D4B2E
:1032B000DB6C2C4A43F00203D3642A4BDB6C03F033
:1032C00002033B613B69FB79002B0BD1254BDB6C87
:1032D000244A43F00203D364224BDB6C03F0020365
:1032E000FB60FB68FB79002B0BD11E4B1B6E1D4A4C
:1032F00043F4804313661B4B1B6E03F48043BB6097
:10330000BB6840237B610223BB6102233B62002335
:10331000FB6107237B62FB79134A52F8233007F1E4
:1033200014021146184600F069FE80237B610223D7
:10333000BB6107237B62FB790C4A52F8233007F10B
:1033400014021146184600F059FEFB79084A52F85B
:1033500023203B681A60386804F0F5FA00BF28376C
:10336000BD4680BD0010024024000020280000203F
:103370002000002080B58AB000AF7860274BDB6C5E
:10338000264A43F00203D364244BDB6C03F00203B0
:103390003B613B694FF440637B611223BB610123B6
:1033A000FB6103233B6204237B6207F1140319468C
:1033B0001B4800F023FE07F114031946184800F0DB
:1033C0001DFE164B9B6D154A43F480039365134B0A
:1033D0009B6D03F48003FB60FB68104B9B6B0F4AF3
:1033E00043F4800393630D4B9B6B0C4A23F48003DF
:1033F000936300220F21212000F0AFFA212000F07A
:10340000C8FA00220F21222000F0A7FA222000F0A3
:10341000C0FA00BF2837BD4680BD00BF0010024083
:103420000004004880B582B000AF78607B68124A23
:103430001A607B68114A5A607B6800229A607B6838
:103440000122DA607B6800221A617B6800225A61DF
:103450007B680022DA617B6800221A627868FFF7D5
:1034600089FF786800F0A4FF0021786801F0BCFCB7
:1034700000BF0837BD4680BD00580040812670005F
:1034800080B58AB004AFF860084611461A46034674
:10349000FB720B463B811346FB800023FB75FB7AD6
:1034A00099B2F8883A894FF47A730293BB8C0193EE
:1034B0003B6A00930346F86801F060F90346FB7528
:1034C000FB7D002B04D0FB7A1946F86800F032F837
:1034D000FB7D18461837BD4680BD80B58AB004AF65
:1034E000F860084611461A460346FB720B463B81BC
:1034F0001346FB800023FB75FB7A99B2F8883A8962
:103500004FF47A730293BB8C01933B6A009303469A
:10351000F86801F01FF80346FB75FB7D002B04D013
:10352000FB7A1946F86800F005F8FB7D1846183755
:10353000BD4680BD80B582B000AF78600B46FB70A1
:10354000786800F0C4FF7868FFF76CFF00BF0837A9
:10355000BD4680BD80B500AF0248FFF763FF00BFE6
:1035600080BD00BFCC13002080B584B002AF0346FD
:10357000FB710B46BB7113467B71BB799AB2F9792B
:10358000012301937B1D009301230348FFF7A5FF4F
:1035900000BF0837BD4680BDCC13002080B586B083
:1035A00002AF03460A46FB711346BB710023FB734F
:1035B000BB799AB2F9790123019307F10F030093C4
:1035C00001230448FFF75CFFFB7B18461037BD461C
:1035D00080BD00BFCC13002080B584B002AF3A603C
:1035E0001A460346FB710B46BB711346BB80BB7981
:1035F0009AB2F979BB8801933B6800930123044890
:10360000FFF73EFF03469BB218460837BD4680BD14
:10361000CC13002080B582B000AF0123FB71094BB1
:10362000094A1A60FFF796FF064B1B681B680021CA
:10363000BE2098470023FB71FB7918460837BD462A
:1036400080BD00BFD00900200800002080B500AF79
:10365000044B1B68DB68BE209847F0EE407AB0EE62
:10366000670A80BDD009002080B582B000AF00237A
:10367000FB71032000F066F90F2000F015F80346F7
:10368000002B02D00123FB7101E000F005F8FB796B
:1036900018460837BD4680BD80B400AF00BFBD46A8
:1036A0005DF8047B7047000080B584B000AF78609F
:1036B0000023FB73174B1B78002B23D0164B1A6883
:1036C000144B1B7819464FF47A73B3FBF1F3B2FB3A
:1036D000F3F3184600F06BF90346002B0FD17B681B
:1036E0000F2B09D8002279684FF0FF3000F035F930
:1036F0000A4A7B68136007E00123FB7304E001239F
:10370000FB7301E00123FB73FB7B18461037BD46BA
:1037100080BD00BF30000020040000202C000020ED
:1037200080B400AF064B1B781A46064B1B68134447
:10373000044A136000BFBD465DF8047B704700BFBC
:10374000300000201814002080B400AF034B1B6829
:103750001846BD465DF8047B704700BF1814002072
:1037600080B584B000AF7860FFF7EEFFB8607B688B
:10377000FB60FB68B3F1FF3F05D0094B1B781A468D
:10378000FB681344FB6000BFFFF7DEFF0246BB6827
:10379000D31AFA689A42F7D800BF1037BD4680BDE9
:1037A0003000002080B485B000AF78607B6803F003
:1037B0000703FB600C4BDB68BB60BA684FF6FF0386
:1037C0001340BB60FB681A02BB68134343F0BF633E
:1037D00043F40033BB60044ABB68D36000BF1437B6
:1037E000BD465DF8047B704700ED00E080B400AF9B
:1037F000044BDB681B0A03F007031846BD465DF85F
:10380000047B704700ED00E080B483B000AF034656
:10381000FB7197F90730002B0BDBFB7903F01F02DC
:10382000074997F907305B09012000FA02F241F8D5
:10383000232000BF0C37BD465DF8047B704700BFF6
:1038400000E100E080B483B000AF03463960FB7153
:1038500097F90730002B0ADB3B68DAB20C4997F97D
:1038600007301201D2B20B4483F800230AE03B6810
:10387000DAB20849FB7903F00F03043B1201D2B21C
:103880000B441A7600BF0C37BD465DF8047B7047C9
:1038900000E100E000ED00E080B489B000AFF86026
:1038A000B9607A60FB6803F00703FB61FB69C3F151
:1038B0000703042B28BF0423BB61FB690433062BD9
:1038C00002D9FB69033B00E000237B614FF0FF322C
:1038D000BB6902FA03F3DA43BB681A407B699A407A
:1038E0004FF0FF317B6901FA03F3D9437B680B404A
:1038F000134318462437BD465DF8047B704700002B
:1039000080B582B000AF78607B68013BB3F1807F07
:1039100001D301230FE00A4A7B68013B53600F216A
:103920004FF0FF30FFF78EFF054B00229A60044BEB
:1039300007221A60002318460837BD4680BD00BF25
:1039400010E000E080B582B000AF78607868FFF7E3
:1039500029FF00BF0837BD4680BD80B586B000AFE7
:103960000346B9607A60FB7300237B61FFF73EFF7B
:1039700078617A68B9687869FFF78EFF024697F92F
:103980000F3011461846FFF75DFF00BF1837BD46E0
:1039900080BD80B582B000AF0346FB7197F9073058
:1039A0001846FFF731FF00BF0837BD4680BD80B520
:1039B00082B000AF78607868FFF7A2FF0346184630
:1039C0000837BD4680BD80B584B000AF7860002365
:1039D000FB737B6893F82530DBB2022B05D07B6844
:1039E0000422DA630123FB7347E07B681B681A68D3
:1039F0007B681B6822F00E021A607B681B681A68DD
:103A00007B681B6822F001021A607B689B6C1A6855
:103A10007B689B6C22F480721A607B685B6C03F09D
:103A20001C027B681B6C012101FA02F25A607B6860
:103A3000DB6C7A68126D5A607B685B6D002B0CD072
:103A40007B685B6D1A687B685B6D22F480721A601C
:103A50007B689B6D7A68D26D5A607B68012283F81F
:103A600025207B68002283F824207B689B6B002B39
:103A700003D07B689B6B78689847FB7B18461037B0
:103A8000BD4680BD80B586B000AFF860B960C7E9BB
:103A9000002300233B612F4B1B78012B01D1022314
:103AA00053E02C4B01221A704CF2503000F094F885
:103AB0000346FB75FB7D002B43D1264B00225A6049
:103AC000254B1B6803F48063002B09D0224B1B6835
:103AD000214A23F4806313601E4B02221A7702E00E
:103AE0001C4B00221A77FB68002B07D1D7E9002373
:103AF000B86800F0C9F801233B6110E0FB68012BB6
:103B000002D0FB68022B0AD13B681946B86800F066
:103B1000DFF8FB68022B02D14FF480233B614CF2AB
:103B2000503000F059F80346FB753B69002B06D076
:103B3000094B5A693B69DB43074913404B6100F06D
:103B400019FA044B00221A70FB7D18461837BD463F
:103B500080BD00BF340000200020024080B483B04C
:103B600000AF0023FB710B4B5B69002B0BDA094B99
:103B7000094A9A60074B094A9A60064B5B69002B19
:103B800001DA0123FB71FB7918460C37BD465DF85D
:103B9000047B70470020024023016745AB89EFCDCD
:103BA00080B400AF054B5B69044A43F000435361A6
:103BB00000231846BD465DF8047B70470020024094
:103BC00080B400AF034B5B681846BD465DF8047BCC
:103BD000704700BF3400002080B584B000AF78602B
:103BE000FFF7B2FDF8600DE07B68B3F1FF3F09D04D
:103BF000FFF7AAFD0246FB68D31A7A689A4201D8F9
:103C0000032336E01D4B1B6903F48033002BEBD1FB
:103C10001A4B1A691A4B1340BB60BB68002B1ED0AD
:103C2000184B5A68BB681343164A5360BB6803F0CD
:103C30007043002B07D0114B9A69BB6803F07043A7
:103C40000E4913438B61BB6823F07043002B04D0F3
:103C50000A4ABB6823F070431361012309E0074B54
:103C60001B6903F00103002B02D0044B01221A61EF
:103C7000002318461037BD4680BD00BF002002401B
:103C8000FAC302003400002090B484B000AFF860A2
:103C9000C7E900230D4B5B690C4A43F001035361F4
:103CA000FB683A681A60BFF36F8FD7E900124FF0D4
:103CB00000034FF0000413000024FA68043213607C
:103CC00000BF1037BD4690BC704700BF00200240C7
:103CD00080B489B000AF786039608023FB777B685F
:103CE000BB613B687B61134B5B69124A43F48023E1
:103CF0005361EFF31083FB60FB683B6172B67B6935
:103D00001A68BB691A60BB690433BB617B69043301
:103D10007B61FB7F013BFB77FB7F002BEFD13B6996
:103D2000BB60BB6883F3108800BF2437BD465DF8D5
:103D3000047B70470020024080B584B000AF7860FB
:103D400039604C4B1B78012B01D102238DE0494B8C
:103D500001221A704CF25030FFF73EFF0346FB730E
:103D6000FB7B002B7DD1434B00225A60424B1B68EA
:103D700003F40073002B19D03F4B1B683E4A23F419
:103D8000007313603C4B1B6803F48063002B09D065
:103D9000394B1B68384A23F480631360354B032288
:103DA0001A7716E0334B01221A7712E0324B1B6868
:103DB00003F48063002B09D02F4B1B682E4A23F499
:103DC000806313602B4B02221A7702E0294B0022FA
:103DD0001A777B681B68012B13D17B685B681846D8
:103DE00000F04CF84CF25030FFF7F6FE0346FB7340
:103DF000214B5B69204A23F4004323F00403536101
:103E00002DE03B684FF0FF321A607B689B68BB6017
:103E10001DE07B685B681946B86800F067F84CF2F3
:103E20005030FFF7D9FE0346FB73134B5B69124A10
:103E300023F4FF6323F002035361FB7B002B03D0C9
:103E40003B68BA681A600AE0BB680133BB607B68F4
:103E50009A687B68DB681344BA689A42D9D300F049
:103E600089F8044B00221A70FB7B18461037BD46B8
:103E700080BD00BF340000200020024080B483B029
:103E800000AF7860184B1B6A03F48003002B16D038
:103E90007B6803F00103002B05D0134B5B69124ACA
:103EA00043F0040353617B6803F00203002B0ED040
:103EB0000D4B5B690C4A43F40043536107E00A4B26
:103EC0005B69094A43F4004343F004035361064B22
:103ED0005B69054A43F48033536100BF0C37BD462C
:103EE0005DF8047B704700BF0020024080B483B0BF
:103EF00000AF786039601E4B1B6A03F48003002B0F
:103F000006D11B4B5B691A4A23F40063536111E02D
:103F10003B6803F00103002B06D0154B5B69144A84
:103F200023F40063536105E0114B5B69104A43F4CD
:103F3000006353610E4B5B6923F4FF627B68DB0017
:103F400003F4FF630A4913434B61094B5B69084A59
:103F500043F002035361064B5B69054A43F4803327
:103F6000536100BF0C37BD465DF8047B704700BF4E
:103F70000020024080B483B000AF1E4B1B7FFB715A
:103F8000FB79012B02D0FB79032B11D11A4B1B6853
:103F9000194A43F400631360174B1B68164A23F455
:103FA00000631360144B1B68134A43F400731360DF
:103FB000FB79022B02D0FB79032B11D10E4B1B682E
:103FC0000D4A43F4805313600B4B1B680A4A23F4D9
:103FD00080531360084B1B68074A43F480631360E7
:103FE000044B00221A7700BF0C37BD465DF8047BF6
:103FF000704700BF340000200020024080B487B02A
:1040000000AF7860396000237B6166E13B681A6825
:1040100001217B6901FA03F31340FB60FB68002B6D
:1040200000F058813B685B68012B0BD03B685B68F4
:10403000022B07D03B685B68112B03D03B685B68A1
:10404000122B30D17B689B683B617B695B0003224C
:1040500002FA03F3DB433A6913403B613B68DA68D9
:104060007B695B0002FA03F33A6913433B617B68A7
:104070003A699A607B685B683B6101227B6902FA5E
:1040800003F3DB433A6913403B613B685B681B0900
:1040900003F001027B6902FA03F33A6913433B61BF
:1040A0007B683A695A607B68DB683B617B695B00CF
:1040B000032202FA03F3DB433A6913403B613B6896
:1040C0009A687B695B0002FA03F33A6913433B6128
:1040D0007B683A69DA603B685B68022B03D03B6817
:1040E0005B68122B23D17B69DA087B68083253F8AE
:1040F00022303B617B6903F007039B000F2202FA29
:1041000003F3DB433A6913403B613B681A697B69FF
:1041100003F007039B0002FA03F33A6913433B6180
:104120007B69DA087B680832396943F822107B68BA
:104130001B683B617B695B00032202FA03F3DB43EC
:104140003A6913403B613B685B6803F003027B699B
:104150005B0002FA03F33A6913433B617B683A69F7
:104160001A603B685B6803F08053002B00F0B2805C
:10417000614B1B6E604A43F0010313665E4B1B6E7E
:1041800003F00103BB60BB685C4A7B699B08023398
:1041900052F823303B617B6903F003039B000F223D
:1041A00002FA03F3DB433A6913403B617B68B3F1E6
:1041B000904F2BD07B68524A934225D07B68514A5E
:1041C00093421FD07B68504A934219D07B684F4A74
:1041D000934213D07B684E4A93420DD07B684D4A80
:1041E000934207D07B684C4A934201D107230EE0EB
:1041F00008230CE006230AE0052308E0042306E078
:10420000032304E0022302E0012300E000237A6993
:1042100002F00302920093403A6913433B6137492D
:104220007B699B0802333A6941F823203B4B1B68AA
:104230003B61FB68DB433A6913403B613B685B6869
:1042400003F48033002B03D03A69FB6813433B61CE
:10425000324A3B691360314B5B683B61FB68DB436F
:104260003A6913403B613B685B6803F40033002B01
:1042700003D03A69FB6813433B61284A3B695360AA
:10428000264B9B683B61FB68DB433A6913403B610B
:104290003B685B6803F48013002B03D03A69FB682A
:1042A00013433B611D4A3B6993601C4BDB683B61D8
:1042B000FB68DB433A6913403B613B685B6803F48E
:1042C0000013002B03D03A69FB6813433B61134A88
:1042D0003B69D3607B6901337B613B681A687B690A
:1042E00022FA03F3002B7FF491AE00BF1C37BD46CA
:1042F0005DF8047B704700BF0010024000000140E1
:104300000004004800080048000C00480010004865
:104310000014004800180048001C00480004014038
:1043200080B485B000AF78600B467B807B681A69EB
:104330007B881340002B02D00123FB7301E0002394
:10434000FB73FB7B18461437BD465DF8047B704752
:1043500080B483B000AF78600B467B8013467B70DF
:104360007B78002B03D07A887B689A6102E07A8898
:104370007B689A6200BF0C37BD465DF8047B7047CE
:1043800080B582B000AF0346FB80084B5A69FB88BA
:104390001340002B06D0054AFB885361FB88184662
:1043A000FCF79EFF00BF0837BD4680BD00040140FA
:1043B00080B582B000AF78607B68002B01D101230B
:1043C00081E07B6893F84130DBB2002B06D17B683B
:1043D000002283F84020786800F0A8F87B68242247
:1043E00083F841207B681B681A687B681B6822F091
:1043F00001021A607B685A687B681B6822F0706251
:104400001A617B681B689A687B681B6822F400420B
:104410009A607B68DB68012B07D17B689A687B68B0
:104420001B6842F400429A6006E07B689A687B68E9
:104430001B6842F404429A607B68DB68022B04D15B
:104440007B681B684FF400625A607B681B685B687E
:104450007A68126843F0007343F4004353607B684A
:104460001B68DA687B681B6822F40042DA607B68AC
:104470001A697B685B6942EA03017B689B691A02DF
:104480007B681B680A43DA607B68D9697B681A6AB3
:104490007B681B680A431A607B681B681A687B6824
:1044A0001B6842F001021A607B6800225A647B6834
:1044B000202283F841207B6800221A637B68002257
:1044C00083F84220002318460837BD4680BD80B5DA
:1044D00082B000AF78607B68002B01D1012321E01E
:1044E0007B68242283F841207B681B681A687B68FC
:1044F0001B6822F001021A60786800F021F87B68DE
:1045000000225A647B68002283F841207B680022E5
:104510001A637B68002283F842207B68002283F8BC
:104520004020002318460837BD4680BD80B483B0C4
:1045300000AF786000BF0C37BD465DF8047B704764
:1045400080B483B000AF786000BF0C37BD465DF823
:10455000047B704780B588B002AFF860084611460A
:104560001A4603467B810B463B811346FB80FB6862
:1045700093F84130DBB2202B40F0F9803B6A002BEE
:1045800002D0BB8C002B05D1FB684FF400725A643B
:104590000123EDE0FB6893F84030012B01D10223A9
:1045A000E6E0FB68012283F84020FFF7CDF8786150
:1045B0007B690093192301224FF40041F86800F051
:1045C000C3FA0346002B01D00123D1E0FB6821226E
:1045D00083F84120FB68402283F84220FB680022D8
:1045E0005A64FB683A6A5A62FB68BA8C5A85FB685F
:1045F00000225A63F8883A8979897B690193BB6AFA
:1046000000930346F86800F0D3F90346002B05D069
:10461000FB68002283F840200123A9E0FB685B8D42
:104620009BB2FF2B0ED9FB68FF221A85FB681B8DFE
:10463000DAB27989002300934FF08073F86800F0B4
:10464000A5FB0FE0FB685B8D9AB2FB681A85FB68DF
:104650001B8DDAB27989002300934FF00073F8685C
:1046600000F094FB7A69B96AF86800F0ADFA034685
:10467000002B01D001237BE0FB685B6A1A78FB68A2
:104680001B689A62FB685B6A5A1CFB685A62FB688B
:104690005B8D9BB2013B9AB2FB685A85FB681B8D10
:1046A000013B9AB2FB681A85FB685B8D9BB2002BBD
:1046B00034D0FB681B8D002B30D17B690093BB6A23
:1046C00000228021F86800F03FFA0346002B01D059
:1046D00001234DE0FB685B8D9BB2FF2B0ED9FB687D
:1046E000FF221A85FB681B8DDAB2798900230093BB
:1046F0004FF08073F86800F049FB0FE0FB685B8DBA
:104700009AB2FB681A85FB681B8DDAB2798900239F
:1047100000934FF00073F86800F038FBFB685B8D86
:104720009BB2002B9ED17A69B96AF86800F08CFAC6
:104730000346002B01D001231AE0FB681B682022EE
:10474000DA61FB681B685968FB681A680A4B0B4002
:104750005360FB68202283F84120FB68002283F825
:104760004220FB68002283F84020002300E002235F
:1047700018461837BD4680BD00E800FE80B588B0F9
:1047800002AFF860084611461A4603467B810B4685
:104790003B811346FB80FB6893F84130DBB2202B52
:1047A00040F0FD803B6A002B02D0BB8C002B05D172
:1047B000FB684FF400725A640123F1E0FB6893F840
:1047C0004030012B01D10223EAE0FB68012283F88B
:1047D0004020FEF7B9FF78617B690093192301221D
:1047E0004FF40041F86800F0AFF90346002B01D008
:1047F0000123D5E0FB68222283F84120FB68402298
:1048000083F84220FB6800225A64FB683A6A5A62C5
:10481000FB68BA8C5A85FB6800225A63F8883A898B
:1048200079897B690193BB6A00930346F86800F0BD
:1048300013F90346002B05D0FB68002283F84020C3
:104840000123ADE0FB685B8D9BB2FF2B0ED9FB68AB
:10485000FF221A85FB681B8DDAB27989524B0093CF
:104860004FF08073F86800F091FA0FE0FB685B8D01
:104870009AB2FB681A85FB681B8DDAB279894A4BBC
:1048800000934FF00073F86800F080FA7B690093A2
:10489000BB6A00220421F86800F056F90346002B99
:1048A00001D001237CE0FB681B685A6AFB685B6AE5
:1048B000D2B21A70FB685B6A5A1CFB685A62FB68CA
:1048C0001B8D013B9AB2FB681A85FB685B8D9BB21E
:1048D000013B9AB2FB685A85FB685B8D9BB2002B4B
:1048E00034D0FB681B8D002B30D17B690093BB6AF1
:1048F00000228021F86800F027F90346002B01D040
:1049000001234DE0FB685B8D9BB2FF2B0ED9FB684A
:10491000FF221A85FB681B8DDAB279890023009388
:104920004FF08073F86800F031FA0FE0FB685B8DA0
:104930009AB2FB681A85FB681B8DDAB2798900236D
:1049400000934FF00073F86800F020FAFB685B8D6D
:104950009BB2002B9AD17A69B96AF86800F074F9B1
:104960000346002B01D001231AE0FB681B682022BC
:10497000DA61FB681B685968FB681A680B4B0B40CF
:104980005360FB68202283F84120FB68002283F8F3
:104990004220FB68002283F84020002300E002232D
:1049A00018461837BD4680BD0024008000E800FE90
:1049B00080B586B002AFF860084611461A46034635
:1049C0007B810B463B811346FB80FB88DAB27989F9
:1049D000204B00934FF08073F86800F0D7F9FA6924
:1049E000B969F86800F0F0F80346002B01D0012304
:1049F0002CE0FB88012B05D13B89DAB2FB681B68F0
:104A00009A6215E03B891B0A9BB2DAB2FB681B680D
:104A10009A62FA69B969F86800F0D6F80346002B83
:104A200001D0012312E03B89DAB2FB681B689A626D
:104A3000FB690093BB6900228021F86800F084F8CC
:104A40000346002B01D0012300E000231846103755
:104A5000BD4680BD0020008080B586B002AFF86002
:104A6000084611461A4603467B810B463B81134696
:104A7000FB80FB88DAB27989204B00930023F86829
:104A800000F084F9FA69B969F86800F09DF8034606
:104A9000002B01D001232CE0FB88012B05D13B89A1
:104AA000DAB2FB681B689A6215E03B891B0A9BB26D
:104AB000DAB2FB681B689A62FA69B969F86800F0B3
:104AC00083F80346002B01D0012312E03B89DAB2C0
:104AD000FB681B689A62FB690093BB690022402156
:104AE000F86800F031F80346002B01D0012300E004
:104AF000002318461037BD4680BD00BF002000804F
:104B000080B483B000AF78607B681B689B6903F05A
:104B10000203022B03D17B681B6800229A627B6828
:104B20001B689B6903F00103012B07D07B681B689E
:104B30009A697B681B6842F001029A6100BF0C37DA
:104B4000BD465DF8047B704780B584B000AFF86067
:104B5000B9603B601346FB7122E03B68B3F1FF3F55
:104B60001ED0FEF7F1FD0246BB69D31A3A689A429D
:104B700002D33B68002B13D1FB685B6C43F020022F
:104B8000FB685A64FB68202283F84120FB680022FE
:104B900083F84220FB68002283F8402001230FE0C5
:104BA000FB681B689A69BB681340BA689A420CBFDD
:104BB00001230023DBB21A46FB799A42CDD00023B1
:104BC00018461037BD4680BD80B584B000AFF86090
:104BD000B9607A602CE07A68B968F86800F070F81B
:104BE0000346002B01D001232AE0BB68B3F1FF3F4D
:104BF0001ED0FEF7A9FD02467B68D31ABA689A4216
:104C000002D3BB68002B13D1FB685B6C43F020021E
:104C1000FB685A64FB68202283F84120FB6800226D
:104C200083F84220FB68002283F84020012307E03C
:104C3000FB681B689B6903F00203022BCBD10023A6
:104C400018461037BD4680BD80B584B000AFF8600F
:104C5000B9607A6028E07A68B968F86800F030F8DE
:104C60000346002B01D0012326E0FEF76DFD02462E
:104C70007B68D31ABA689A4202D3BB68002B13D15F
:104C8000FB685B6C43F02002FB685A64FB682022DF
:104C900083F84120FB68002283F84220FB68002251
:104CA00083F84020012307E0FB681B689B6903F041
:104CB0002003202BCFD1002318461037BD4680BDDE
:104CC00080B584B000AFF860B9607A60FB681B689B
:104CD0009B6903F01003102B51D122E0BB68B3F1A4
:104CE000FF3F1ED0FEF730FD02467B68D31ABA683C
:104CF0009A4202D3BB68002B13D1FB685B6C43F074
:104D00002002FB685A64FB68202283F84120FB687C
:104D1000002283F84220FB68002283F84020012310
:104D20002EE0FB681B689B6903F02003202BD5D184
:104D3000FB681B681022DA61FB681B682022DA61BD
:104D4000F868FFF7DDFEFB681B685968FB681A68A6
:104D50000D4B0B405360FB685B6C43F00402FB6837
:104D60005A64FB68202283F84120FB68002283F804
:104D70004220FB68002283F84020012300E000234A
:104D800018461037BD4680BD00E800FE80B485B0EF
:104D900000AFF8607B600B467B8113467B72FB683B
:104DA0001B685A68BB695B0D03F480610D4B0B43B4
:104DB000DB4302EA03017B89C3F309027B7A1B040C
:104DC00003F47F031A437B681A43BB691A43FB68E9
:104DD0001B680A435A6000BF1437BD465DF8047B68
:104DE000704700BFFF63FF0380B483B000AF7860FB
:104DF00039607B6893F84130DBB2202B38D17B6877
:104E000093F84030012B01D1022332E07B6801226C
:104E100083F840207B68242283F841207B681B684C
:104E20001A687B681B6822F001021A607B681B68A5
:104E30001A687B681B6822F480521A607B681B68C2
:104E400019687B681B683A680A431A607B681B68AC
:104E50001A687B681B6842F001021A607B68202296
:104E600083F841207B68002283F84020002300E083
:104E7000022318460C37BD465DF8047B70470000DE
:104E800080B400AF0D4B1B6803F4C063B3F5806FB3
:104E900002D14FF480630BE0084BD3F8803003F469
:104EA0008073B3F5807F02D14FF4007300E00023DC
:104EB0001846BD465DF8047B704700BF0070004097
:104EC00080B588B000AF78607B68002B02D10123E9
:104ED00000F016BCA04B9B6803F00C03BB619E4B1B
:104EE000DB6803F003037B617B681B6803F010033E
:104EF000002B00F0E480BB69002B07D0BB690C2BB2
:104F000040F08B807B69012B40F08780924B1B68BF
:104F100003F00203002B05D07B689B69002B01D1B5
:104F20000123EDE37B681A6A8B4B1B6803F00803CF
:104F3000002B04D0884B1B6803F0F00305E0864B80
:104F4000D3F894301B0903F0F003934223D27B681B
:104F50001B6A184600F0C8FD0346002B01D0012350
:104F6000CEE37D4B1B687C4A43F0080313607A4B09
:104F70001B6823F0F0027B681B6A774913430B60C0
:104F8000754B5B6823F47F427B68DB691B027249C7
:104F900013434B6025E0704B1B686F4A43F00803D6
:104FA00013606D4B1B6823F0F0027B681B6A6A4933
:104FB00013430B60684B5B6823F47F427B68DB69BB
:104FC0001B02654913434B60BB69002B09D17B6809
:104FD0001B6A184600F088FD0346002B01D0012310
:104FE0008EE300F0BFFC01465B4B9B681B0903F09E
:104FF0000F035A4AD35C03F01F0321FA03F3584A04
:105000001360584B1B681846FEF74EFB0346FB73B4
:10501000FB7B002B52D0FB7B72E37B689B69002BF0
:1050200032D04D4B1B684C4A43F001031360FEF72E
:105030008BFB386108E0FEF787FB02463B69D31A19
:10504000022B01D903235BE3434B1B6803F00203EC
:10505000002BF0D0404B1B683F4A43F0080313601D
:105060003D4B1B6823F0F0027B681B6A3A491343EF
:105070000B60394B5B6823F47F427B68DB691B0262
:10508000354913434B601AE0334B1B68324A23F017
:1050900001031360FEF758FB386108E0FEF754FB8C
:1050A00002463B69D31A022B01D9032328E32A4B7A
:1050B0001B6803F00203002BF0D100E000BF7B6807
:1050C0001B6803F00103002B73D0BB69082B05D0CC
:1050D000BB690C2B0ED17B69032B0BD11E4B1B68BC
:1050E00003F40033002B63D07B685B68002B5FD137
:1050F000012305E37B685B68B3F5803F06D1164B5F
:105100001B68154A43F4803313601DE07B685B68BD
:10511000B3F5A02F0CD1104B1B680F4A43F480232A
:1051200013600D4B1B680C4A43F4803313600BE093
:10513000094B1B68084A23F480331360064B1B6835
:10514000054A23F4802313607B685B68002B1BD027
:10515000FEF7FAFA386110E00010024010A70008CC
:10516000040000202C000020FEF7EEFA02463B6906
:10517000D31A642B01D90323C2E2AF4B1B6803F49B
:105180000033002BF0D014E0FEF7DEFA386108E0BF
:10519000FEF7DAFA02463B69D31A642B01D90323DE
:1051A000AEE2A54B1B6803F40033002BF0D100E006
:1051B00000BF7B681B6803F00203002B60D0BB6953
:1051C000042B05D0BB690C2B19D17B69022B16D19E
:1051D000994B1B6803F48063002B05D07B68DB6868
:1051E000002B01D101238BE2934B5B6823F0FE423D
:1051F0007B681B691B06904913434B6040E07B684A
:10520000DB68002B23D08C4B1B688B4A43F48073E4
:105210001360FEF799FA386108E0FEF795FA024646
:105220003B69D31A022B01D9032369E2824B1B6825
:1052300003F48063002BF0D07F4B5B6823F0FE42C9
:105240007B681B691B067C4913434B6018E07A4B53
:105250001B68794A23F480731360FEF775FA38618E
:1052600008E0FEF771FA02463B69D31A022B01D916
:10527000032345E2704B1B6803F48063002BF0D1DD
:105280007B681B6803F00803002B3CD07B685B69DC
:10529000002B1CD0684BD3F89430674A43F00103CD
:1052A000C2F89430FEF750FA386108E0FEF74CFA85
:1052B00002463B69D31A022B01D9032320E25E4B3D
:1052C000D3F8943003F00203002BEFD01BE05A4BCD
:1052D000D3F89430584A23F00103C2F89430FEF713
:1052E00033FA386108E0FEF72FFA02463B69D31A19
:1052F000022B01D9032303E24F4BD3F8943003F080
:105300000203002BEFD17B681B6803F00403002B22
:1053100000F0A6800023FB77474B9B6D03F0805382
:10532000002B0DD1444B9B6D434A43F08053936552
:10533000414B9B6D03F08053BB60BB680123FB773F
:105340003E4B1B6803F48073002B18D13B4B1B684A
:105350003A4A43F480731360FEF7F6F9386108E0C7
:10536000FEF7F2F902463B69D31A022B01D9032357
:10537000C6E1324B1B6803F48073002BF0D07B68CE
:105380009B68012B08D12C4BD3F890302A4A43F06C
:105390000103C2F8903024E07B689B68052B10D194
:1053A000254BD3F89030244A43F00403C2F89030E0
:1053B000214BD3F89030204A43F00103C2F89030DB
:1053C0000FE01D4BD3F890301B4A23F00103C2F8C5
:1053D0009030194BD3F89030174A23F00403C2F8E9
:1053E00090307B689B68002B16D0FEF7ADF93861D2
:1053F0000AE0FEF7A9F902463B69D31A41F2883266
:10540000934201D903237BE10B4BD3F8903003F097
:105410000203002BEDD01AE0FEF796F938610FE099
:10542000FEF792F902463B69D31A41F28832934261
:1054300006D9032364E100BF001002400070004061
:10544000A84BD3F8903003F00203002BE8D1FB7F88
:10545000012B05D1A34B9B6DA24A23F0805393658A
:105460007B681B6803F02003002B3CD07B685B6AE1
:10547000002B1CD09B4BD3F898309A4A43F0010381
:10548000C2F89830FEF760F9386108E0FEF75CF981
:1054900002463B69D31A022B01D9032330E1914B19
:1054A000D3F8983003F00203002BEFD01BE08D4BB4
:1054B000D3F898308B4A23F00103C2F89830FEF7F6
:1054C00043F9386108E0FEF73FF902463B69D31A19
:1054D000022B01D9032313E1824BD3F8983003F058
:1054E0000203002BEFD17B689B6A002B00F0078141
:1054F0007B689B6A022B40F0CB807A4BDB687B6138
:105500007B6903F003027B68DB6A9A422CD17B69DA
:1055100003F0F0027B681B6B013B1B019A4223D115
:105520007B6903F4FE427B685B6B1B029A421BD1D2
:105530007B6903F078427B689B6BDB069A4213D150
:105540007B6903F4C0027B68DB6B5B08013B5B0596
:105550009A4209D17B6903F0C0627B681B6C5B08CF
:10556000013B5B069A426DD0BB690C2B68D05D4B4A
:105570001B6803F08063002B05D15A4B1B6803F0B6
:105580008053002B01D00123BAE0564B1B68554ACB
:1055900023F080731360FEF7D7F8386108E0FEF758
:1055A000D3F802463B69D31A022B01D90323A7E0A3
:1055B0004C4B1B6803F00073002BF0D1494BDA68A9
:1055C000494B13407A68D16A7A68126B013A12012A
:1055D00011437A68526B120211437A68D26B5208F7
:1055E000013A520511437A68126C5208013A520688
:1055F00011437A68926BD2060A433A491343CB604F
:10560000384B1B68374A43F080731360354BDB68B7
:10561000344A43F08073D360FEF796F8386108E0AF
:10562000FEF792F802463B69D31A022B01D90323F5
:1056300066E02C4B1B6803F00073002BF0D05EE09B
:1056400001235DE0274B1B6803F00073002B56D14C
:10565000244B1B68234A43F080731360214BDB68A3
:10566000204A43F08073D360FEF76EF8386108E09B
:10567000FEF76AF802463B69D31A022B01D90323CD
:105680003EE0184B1B6803F00073002BF0D036E0AF
:10569000BB690C2B31D0134B1B68124A23F080736B
:1056A0001360104B1B6803F02053002B05D10D4BEA
:1056B000DB680C4A23F00303D3600A4BDB68094A1A
:1056C00023F0887323F48033D360FEF73DF838610C
:1056D0000CE0FEF739F802463B69D31A022B05D9D4
:1056E00003230DE0001002400C809D01064B1B6857
:1056F00003F00073002BECD101E0012300E0002354
:1057000018462037BD4680BD0010024080B586B0E7
:1057100000AF7860396000237B617B68002B01D18A
:1057200001230FE1894B1B6803F00F033A689A428B
:1057300010D9864B1B6823F00F0284493B68134342
:105740000B60824B1B6803F00F033A689A4201D04A
:105750000123F7E07B681B6803F00103002B00F0D6
:1057600089807B685B68032B33D1794B1B6803F01E
:105770000073002B01D10123E4E000F00FFA024690
:10578000744B9A4255D9724B9B6803F0F003002B7F
:105790000AD16F4B9B6823F0F0036D4A43F08003FE
:1057A000936080237B6144E07B681B6803F0020305
:1057B000002B3ED07B689B68002B3AD1644B9B68E2
:1057C00023F0F003624A43F08003936080237B61FF
:1057D0002FE07B685B68022B07D15D4B1B6803F4ED
:1057E0000033002B15D10123ACE07B685B68002BF4
:1057F00007D1574B1B6803F00203002B09D101238B
:10580000A0E0534B1B6803F48063002B01D10123FC
:1058100098E000F0A7F802464E4B9A4209D94C4B4B
:105820009B6823F0F0034A4A43F08003936080238F
:105830007B61474B9B6823F003027B685B684449AC
:1058400013438B60FDF780FF38610AE0FDF77CFFB2
:1058500002463B69D31A41F28832934201D90323AD
:1058600070E03B4B9B6803F00C027B685B689B001D
:105870009A42EBD17B681B6803F00203002B09D02E
:10588000334B9B6823F0F0027B689B6830491343DD
:105890008B6008E07B69802B05D12D4B9B682C4ADF
:1058A00023F0F0039360294B1B6803F00F033A6861
:1058B0009A4210D2254B1B6823F00F0223493B6804
:1058C00013430B60214B1B6803F00F033A689A42A5
:1058D00001D0012336E07B681B6803F00403002B32
:1058E00008D01B4B9B6823F4E0627B68DB68184997
:1058F00013438B607B681B6803F00803002B09D0FF
:10590000134B9B6823F460527B681B69DB001049D2
:1059100013438B6000F026F801460D4B9B681B0972
:1059200003F00F030C4AD35C03F01F0321FA03F3C7
:105930000A4A13600A4B1B681846FDF7B5FE03467A
:10594000FB73FB7B18461837BD4680BD0020024024
:105950000010024000B4C40410A700080400002096
:105960002C00002080B489B000AF0023FB6100232D
:10597000BB613D4B9B6803F00C033B613A4BDB681A
:1059800003F00303FB603B69002B05D03B690C2B44
:1059900021D1FB68012B1ED1334B1B6803F0080398
:1059A000002B07D1304BD3F894301B0A03F00F03C0
:1059B000FB6105E02C4B1B681B0903F00F03FB6127
:1059C0002A4AFB6952F82330FB613B69002B0DD159
:1059D000FB69BB610AE03B69042B02D1244BBB612C
:1059E00004E03B69082B01D1224BBB613B690C2BC6
:1059F00033D11D4BDB6803F00303BB60BB68022B94
:105A000002D0032B03D005E0194B7B6105E0194B55
:105A10007B6102E0FB697B6100BF134BDB681B0904
:105A200003F00F0301337B600F4BDB681B0A03F0AD
:105A30007F037A6902FB03F27B68B2FBF3F37B61BD
:105A4000094BDB685B0E03F0030301335B003B6033
:105A50007A693B68B2FBF3F3BB61BB691846243734
:105A6000BD465DF8047B70470010024028A700087F
:105A70000024F40000127A0080B400AF034B1B68CE
:105A80001846BD465DF8047B704700BF0400002047
:105A900080B500AFFFF7F0FF0146064B9B681B0A7D
:105AA00003F00703044AD35C03F01F0321FA03F356
:105AB000184680BD0010024020A7000880B500AF46
:105AC000FFF7DAFF0146064B9B68DB0A03F007038A
:105AD000044AD35C03F01F0321FA03F3184680BD88
